:100000000C9466000C9487000C9487000C94870075
:100010000C9487000C9487000C9487000C94870044
:100020000C9487000C9487000C9487000C94870034
:100030000C9487000C9487000C9487000C94870024
:100040000C9487000C9487000C9487000C94870014
:100050000C9487000C9487000C9487000C94870004
:100060000C9487000C9487000C9487000C948700F4
:100070000C9487000C9487000C9487000C948700E4
:100080000C9487000C9487000C9487000C948700D4
:100090000C947A020C9487000C9487000C948700CF
:1000A0000C9487000C9487000C9487000C948700B4
:1000B0000C9487000C9487000C9487000C948700A4
:1000C0000C9487000C9487000C94870011241FBEA9
:1000D000CFEFD1E2DEBFCDBF00E00CBF12E0A0E069
:1000E000B2E0E2E1FFE000E00BBF02C007900D923A
:1000F000A830B107D9F713E0A8E0B2E001C01D9223
:10010000A431B107E1F70E9489000C9487070C9491
:1001100000008FE787B98EE788B980E090E00E9401
:10012000660178940E94AF000197E1F70E94A80051
:1001300084FF02C0449801C0449A85FF02C04598DC
:1001400001C0459A86FF02C04698ECCF469AEACF96
:1001500010920B0380910C0390910D0308951F934F
:1001600080910B03813019F421E030E083C080914D
:100170000A03863098F490E066E070E0681B790B23
:10018000825F9C4F0E9439029C018FEF2F3F3807FE
:1001900029F080910A03820F80930A0310910A03C9
:1001A0001230D8F1AEE0B3E0FD0120E030E0612F85
:1001B00070E0AB014150504010C080818F3F51F43E
:1001C000241735073CF48181853521F4211531054B
:1001D00021F106C02F5F3F4F3196261737076CF38A
:1001E000A9012617370749F49B0121503040F90136
:1001F000E25FFC4F80818F3F09F09A01F901E25FD5
:10020000FC4FA90104C081918D934F5F5F4F46174A
:100210005707CCF3121B10930A0380910A03863010
:1002200029F580910E038F3FE9F480910F03853506
:10023000C9F430911003809111038095381791F41F
:1002400020911203809113038095281759F4922F5F
:1002500080E0830F911D90930D0380930C0381E048
:1002600080930B0310920E0310920A0380910B03EC
:10027000282F30E0C9011F910895DF93CF9300D05C
:1002800000D0CDB7DEB72FEF298325E52A838B83F6
:1002900080958C839D8390959E83CE01019666E028
:1002A00070E00E94A10120E030E0069711F421E007
:1002B00030E0C90126960FB6F894DEBF0FBECDBF61
:1002C000CF91DF9108950E94A001089540E050E091
:1002D00061E677E40E947D01892B19F420E030E08B
:1002E0000AC010920B0310920D0310920C0310928F
:1002F0000A0321E030E0C90108959A01AB0182E4CC
:100300008093C80088E98093C90086E08093CA0082
:1003100060E074E284EF99E40E947A040E94A402EF
:10032000615070407093C5006093C4008FEF80935C
:10033000CE00109208031092090381E090E0089526
:100340000895AC0120E030E00CC08091C80085FF2A
:10035000FCCFFA01E20FF31F80818093CE002F5F64
:100360003F4F261737078CF3C90108959091080372
:1003700080910903981719F420E030E017C090919C
:10038000080380910903981738F48091090390912C
:100390000803282F30E008C08091090390910803DA
:1003A000282F30E020503F4F291B3109C901089503
:1003B000482F90910803809109039817D1F09091EC
:1003C000080380910903981738F4809109039091EC
:1003D0000803282F30E008C080910903909108039A
:1003E000282F30E020503F4F291B31092F3F310586
:1003F00091F0E0910903F0E0E85FFD4F40838091C8
:1004000009038F3F19F4109209030895809109039D
:100410008F5F8093090308959091080380910903E9
:10042000981721F19091080380910903981738F4E7
:100430009091090380910803981729F417C08091BF
:10044000090380910803E0910803F0E0E85FFD4FA5
:10045000E081809108038F3F19F41092080307C0D0
:10046000809108038F5F8093080301C0EFEF8E2F08
:100470000895EF92FF920F931F93CF93DF937C0128
:100480009091080380910903981719F420E030E057
:1004900017C09091080380910903981738F4809150
:1004A000090390910803282F30E008C080910903C8
:1004B00090910803282F30E020503F4F291B31092D
:1004C0008901621773070CF48B01C0E0D0E007C00C
:1004D0000E940C02F701EC0FFD1F80832196C017CC
:1004E000D107B4F3C801DF91CF911F910F91FF9015
:1004F000EF9008951F920F920FB60F920BB60F92C6
:1005000011242F933F934F935F936F937F938F9318
:100510009F93AF93BF93EF93FF938091CE000E9480
:10052000D801FF91EF91BF91AF919F918F917F91F2
:100530006F915F914F913F912F910F900BBE0F9054
:100540000FBE0F901F901895EF92FF920F931F937D
:100550007B018C0120E030E040E05FE40E94260552
:1005600088238CF0C801B70120E030E040E05FE470
:100570000E941C040E9456059B01AC012050304093
:100580004040504806C0C801B7010E9456059B0173
:10059000AC01B901CA011F910F91FF90EF9008952E
:1005A000A0E0B0E0E6EDF2E00C945007DC012B0196
:1005B000FA019C91923008F439C1EB0188818230B4
:1005C00008F433C1943069F4843009F02FC11196D6
:1005D0009C9111978981981709F428C1A0E0B2E095
:1005E00025C1843009F421C18230A9F4923009F088
:1005F0001DC19A01AD0188E0EA010990AE01E9014F
:1006000009929E018150C1F7E201898111969C9166
:100610008923818308C1923009F407C112962D9075
:100620003C901397EB018A819B811496AD90BD900D
:10063000CD90DC901797EC80FD800E811F81910199
:10064000281B390BB90137FF04C066277727621BC7
:10065000730B603271050CF061C0121613066CF555
:1006600037014801062E04C09694879477946794C6
:100670000A94D2F721E030E040E050E004C0220FBD
:10068000331F441F551F6A95D2F721503040404018
:1006900050402E213F214023512321153105410592
:1006A000510521F021E030E040E050E079018A017D
:1006B000E628F728082919293CC0232BD1F1260E5A
:1006C000371E35014601062E04C096948794779410
:1006D00067940A94D2F721E030E040E050E004C093
:1006E000220F331F441F551F6A95D2F72150304007
:1006F000404050402A213B214C215D2121153105EC
:100700004105510521F021E030E040E050E0590181
:100710006A01A628B728C828D9280BC082159305D6
:100720002CF01C01AA24BB24650103C0EE24FF2485
:10073000870111969C91D20111968C91981709F41A
:1007400045C0992339F0A80197012A193B094C09A2
:100750005D0906C0A60195012E193F09400B510BFA
:1007600057FD08C011823382228224833583468359
:1007700057831DC081E08183338222828827992795
:10078000DC01821B930BA40BB50B84839583A6839A
:10079000B7830DC0220F331F441F551F2483358399
:1007A0004683578382819381019793838283248137
:1007B000358146815781DA01C9010197A109B10943
:1007C0008F5F9F4FAF4FBF4328F30BC0918333829E
:1007D0002282EA0CFB1C0C1D1D1DE482F58206839F
:1007E000178383E08083248135814681578157FFB9
:1007F0001AC0C901AA2797FDA095BA2F81709070E1
:10080000A070B0705695479537952795822B932BFE
:10081000A42BB52B84839583A683B7838281938190
:10082000019693838283DF0101C0D201CD01CDB750
:10083000DEB7E2E10C946C07A0E2B0E0E2E2F4E0A3
:100840000C945C0769837A838B839C832D833E831E
:100850004F835887E9E0EE2EF12CEC0EFD1ECE0101
:100860000196B7010E947F068E010F5E1F4FCE01D9
:100870000596B8010E947F068A8991E089278A8BB4
:10088000C701B801AE01475E5F4F0E94D0020E94CF
:10089000AA05A096E6E00C947807A0E2B0E0E3E5B4
:1008A000F4E00C945C0769837A838B839C832D83AB
:1008B0003E834F835887F9E0EF2EF12CEC0EFD1E9E
:1008C000CE010196B7010E947F068E010F5E1F4F79
:1008D000CE010596B8010E947F06C701B801AE019E
:1008E000475E5F4F0E94D0020E94AA05A096E6E0F4
:1008F0000C947807A8E1B0E0E0E8F4E00C94580725
:1009000069837A838B839C832D833E834F835887AF
:10091000B9E0EB2EF12CEC0EFD1ECE010196B701D5
:100920000E947F068E010F5E1F4FCE010596B80113
:100930000E947F062985223008F47EC03989323032
:1009400010F4B8017CC08A859A8989278A87243067
:1009500011F0223031F4231709F06EC060E072E02C
:100960006EC0343039F41D861E861F86188A1C8698
:100970001B8604C0323021F484E08987B7015FC050
:100980002B853C858B899C89281B390B3C872B87C1
:10099000ED84FE840F851889AD88BE88CF88D88CF9
:1009A000EA14FB040C051D0540F4EE0CFF1C001FAF
:1009B000111F215030403C872B8720E030E040E081
:1009C00050E080E090E0A0E0B0E460E070E0EA1485
:1009D000FB040C051D0540F0282B392B4A2B5B2B03
:1009E000EA18FB080C091D09B695A79597958795F8
:1009F000EE0CFF1C001F111F6F5F7F4F6F317105E1
:100A000031F7DA01C9018F779070A070B07080342F
:100A10009105A105B10561F427FD0AC0E114F104B7
:100A20000105110529F0205C3F4F4F4F5F4F2078A3
:100A30002D873E874F87588BBE01675F7F4FCB0165
:100A40000E94AA056896EAE00C947407A8E1B0E059
:100A5000ECE2F5E00C945C0769837A838B839C83DA
:100A60002D833E834F83588789E0E82EF12CEC0ECE
:100A7000FD1ECE010196B7010E947F068E010F5E1A
:100A80001F4FCE010596B8010E947F0689858230EE
:100A900040F08989823028F0C701B8010E94F7062A
:100AA00001C08FEF6896E6E00C947807ACE0B0E008
:100AB000ECE5F5E00C94600769837A838B839C8373
:100AC000CE010196BE016B5F7F4F0E947F068D8134
:100AD000823061F1823050F1843021F48E8188239C
:100AE00051F12EC02F81388537FD20C06E812F3106
:100AF00031051CF06623F9F023C08EE190E0821BE3
:100B0000930B29853A854B855C8504C0569547959E
:100B1000379527958A95D2F76623B1F05095409581
:100B2000309521953F4F4F4F5F4F0EC020E030E092
:100B300040E050E009C02FEF3FEF4FEF5FE704C008
:100B400020E030E040E050E8B901CA012C96E2E034
:100B50000C947C07DF92EF92FF920F931F93FC019E
:100B6000E480F58006811781D1808081823048F44D
:100B700080E090E0A0E1B0E0E82AF92A0A2B1B2BE4
:100B8000A5C0843009F49FC0823021F4EE24FF24F4
:100B9000870105C0E114F1040105110519F4E0E035
:100BA000F0E096C0628173819FEF623879070CF0A4
:100BB0005BC022E83FEF261B370B2A3131052CF0B2
:100BC00020E030E040E050E02AC0B801A701022E4A
:100BD00004C076956795579547950A94D2F781E0BA
:100BE00090E0A0E0B0E004C0880F991FAA1FBB1FCF
:100BF0002A95D2F70197A109B1098E219F21A0233F
:100C0000B1230097A105B10521F081E090E0A0E0BB
:100C1000B0E09A01AB01282B392B4A2B5B2BDA0170
:100C2000C9018F779070A070B07080349105A105D4
:100C3000B10539F427FF09C0205C3F4F4F4F5F4F8C
:100C400004C0215C3F4F4F4F5F4FE0E0F0E02030A9
:100C5000A0E03A07A0E04A07A0E45A0710F0E1E05C
:100C6000F0E079018A0127C06038710564F5FB0165
:100C7000E158FF4FD801C7018F779070A070B07016
:100C800080349105A105B10539F4E7FE0DC080E47B
:100C900090E0A0E0B0E004C08FE390E0A0E0B0E01E
:100CA000E80EF91E0A1F1B1F17FF05C016950795B2
:100CB000F794E794319687E016950795F794E794B3
:100CC0008A95D1F705C0EE24FF248701EFEFF0E00D
:100CD0006E2F679566276795902F9F77D794DD24B1
:100CE000D7948E2F8695492F462B582F5D29B70113
:100CF000CA011F910F91FF90EF90DF900895FC01C2
:100D0000DB01408151812281622F6F7770E0221FC9
:100D10002227221F9381892F880F822B282F30E0D2
:100D2000991F9927991F11969C93119721153105A9
:100D3000A9F5411551056105710511F482E037C02F
:100D400082E89FEF13969C938E9312979A01AB01C2
:100D500067E0220F331F441F551F6A95D1F783E0C8
:100D60008C930DC0220F331F441F551F12968D9177
:100D70009C911397019713969C938E931297203012
:100D800080E0380780E0480780E4580758F314965D
:100D90002D933D934D935C93179708952F3F310505
:100DA00079F4411551056105710519F484E08C93BE
:100DB000089564FF03C081E08C9312C01C9210C0A0
:100DC0002F57304013963C932E93129783E08C93C9
:100DD00087E0440F551F661F771F8A95D1F770640F
:100DE00014964D935D936D937C93179708951F937D
:100DF000DC01FB019C91923008F447C08081823075
:100E000008F443C0943051F411961C91843099F544
:100E10008181682F70E0611B71093FC0843021F02F
:100E2000923031F48230B9F18181882389F12DC06B
:100E300011961C9111978230F1F081811817D9F425
:100E400012962D913C91139782819381821793077B
:100E500094F028173907BCF014968D919D910D9050
:100E6000BC91A02D248135814681578128173907EF
:100E70004A075B0718F4112341F00AC08217930751
:100E8000A407B50740F4112319F061E070E005C034
:100E90006FEF7FEF02C060E070E0CB011F9108951B
:100EA0002F923F924F925F926F927F928F929F927A
:100EB000AF92BF92CF92DF92EF92FF920F931F9368
:100EC000CF93DF93CDB7DEB7CA1BDB0B0FB6F89419
:100ED000DEBF0FBECDBF19942A88398848885F8449
:100EE0006E847D848C849B84AA84B984C884DF80CA
:100EF000EE80FD800C811B81AA81B981CE0FD11DAE
:100F00000FB6F894DEBF0FBECDBFED010895F89483
:020F1000FFCF11
:080F12000000000000000000D7
:00000001FF
